:100000000C942A000C9439050C9447000C9447007A
:100010000C9447000C9447000C9447000C94470044
:100020000C9447000C9447000C9447000C94ED038B
:100030000C9447000C9447000C9447000C94470024
:100040000C9447000C9447000C9447000C94470014
:100050000C94470011241FBECFE5D4E0DEBFCDBF16
:1000600011E0A0E6B0E0E8E9FEE102C005900D92E3
:10007000A03FB107D9F722E0A0EFB1E001C01D9287
:10008000A732B207E1F70E942C0B0C944A0F0C9494
:1000900000008FB9779BFECF8FB10895FC0160837C
:1000A000718377B321E030E0C90102C0880F991F46
:1000B0006A95E2F7872B87BB68B3C901008002C04D
:1000C000880F991F0A94E2F7862B88BB42835383DB
:1000D00057B3C90102C0880F991F4A95E2F7852BD3
:1000E00087BB88B3028002C0220F331F0A94E2F755
:1000F000282B28BB0895FF920F931F93CF93DF9374
:100100008C01F42E98B3C1E0D0E09E01F80100808C
:1001100002C0220F331F0A94E2F7822F80958923B1
:1001200088BB862F90E0880F991F8E770E94490028
:100130008F2D0E94490088B3F801008002C0CC0FC7
:10014000DD1F0A94E2F7C82BC8BBDF91CF911F9146
:100150000F91FF9008950F931F93CF93DF938C011E
:1001600098B3C1E0D0E09E01F801008002C0220FE8
:10017000331F0A94E2F7822F8095892388BB862F4C
:1001800090E0880F991F8E7780680E94490080E078
:100190000E94490098B3F801008002C0CC0FDD1F17
:1001A0000A94E2F7C92BC8BBDF91CF911F910F9141
:1001B00008954FE061E00E947B0008950F931F9324
:1001C000CF93DF938C01D62FC42F0E94AB00482F12
:1001D0004C2B6D2FC8010E947B00DF91CF911F91A6
:1001E0000F9108950F931F93CF93DF938C01D62F18
:1001F000C42F0E94AB00C0954C2F48236D2FC8011F
:100200000E947B00DF91CF911F910F910895CF93B2
:10021000DF93EC0128B381E090E0088002C0880FF2
:10022000991F0A94E2F7822B88BBCE010E94D90065
:100230004DE86AE2CE010E947B004EE36BE2CE0104
:100240000E947B004EE16DE2CE010E947B0040E007
:100250006CE2CE010E947B0040E465E1CE010E9489
:100260007B004DE361E1CE010E947B0043E064E14D
:10027000CE010E94DE00DF91CF9108955F926F92D0
:100280007F928F929F92AF92BF92CF92DF92EF9226
:10029000FF920F931F93CF93DF93EC01762E5A01B9
:1002A00069014CE0641731F05EE0651761F0612C84
:1002B000512C10C00F2EF0E36F2EF02D0F2EF7E70C
:1002C0005F2EF02D07C06894662464F80F2EF2E1CB
:1002D0005F2EF02D452D406862E0CE010E947B002C
:1002E00040E864E0CE010E94F20040E86AE0CE01FE
:1002F0000E94DE0040E061E0CE010E947B00812C84
:10030000912C0BC0F501E80DF91D408169E0CE018B
:100310000E947B008FEF881A980A8C149D0494F336
:10032000472D61E0CE010E947B009CE0791205C060
:1003300040E86DE0CE010E94DE000F2EF9E1CF2EE5
:10034000D12CF02DE1EEF4E03197F1F700C0000080
:1003500064E0CE010E94AB00B82EF1E0CF1AD108C4
:1003600029F080FD03C0862D8B2161F340E86DE00C
:10037000CE010E94F200CD2809F458C066E0CE01FB
:100380000E94AB008D7109F055C0B520B0FC02C0D1
:10039000D12C02C0DD24D3944CE074124EC06AE02C
:1003A000CE010E94AB00C82E6CE0CE010E94AB00D3
:1003B000877091F02C2D30E021503109220F331F2E
:1003C000220F331F220F331FF901E80FF11DCF0158
:1003D000F701918380830BC08C2D90E0880F991FCB
:1003E000880F991F880F991FF70191838083C1108F
:1003F00002C0CC24C394F0E1FC1518F46894CC241A
:10040000C4F8E12CF12C0CC05801AE0CBF1C69E003
:10041000CE010E94AB00F5018083FFEFEF1AFF0AC7
:100420008C2D90E0E816F9067CF307C06894DD2473
:10043000D1F803C06894DD24D1F88D2DDF91CF91E0
:100440001F910F91FF90EF90DF90CF90BF90AF90F2
:100450009F908F907F906F905F900895AF92BF9222
:10046000CF92DF92EF92FF920F931F93CF93DF9380
:1004700000D0CDB7DEB75C01162F6A011A8219824F
:1004800047E06DE00E947B00F6011083CE010196EB
:100490007C01860121E030E0A6016CE0C5010E94EC
:1004A0003E0190E0009731F429813A8120313105F5
:1004B00021F405C082E090E002C082E090E00F905D
:1004C0000F90DF91CF911F910F91FF90EF90DF90F0
:1004D000CF90BF90AF900895AF92BF92CF92DF922E
:1004E000EF92FF920F931F93CF93DF9300D0CDB77E
:1004F000DEB75C016B0140E06DE00E947B0083E9A8
:10050000F601808380E28183CE0101967C01860121
:1005100022E030E0A6016CE0C5010E943E01A82F58
:10052000B0E049815A81552314F4495F5F4F5595D6
:1005300047955595479555954795109749F019C09A
:10054000F601E60FF71F208192276F5F7F4F03C0F0
:1005500090E060E070E09A01215031096217730762
:100560007CF3F601E60FF71F8081981711F0A2E0E7
:10057000B0E08A2F0F900F90DF91CF911F910F91D4
:10058000FF90EF90DF90CF90BF90AF900895AF9223
:10059000BF92CF92DF92EF92FF920F931F93CF9370
:1005A000DF938C015B016A01790144E065E00E9400
:1005B000F20040E86AE0C8010E94DE00C0E0D0E03E
:1005C00009C0F501EC0FFD1F408169E0C8010E94E0
:1005D0007B002196CC15DD05A4F343E061E0C80162
:1005E0000E947B00CFEFD0E065E0C8010E94AB0025
:1005F000219711F082FFF8CF62E2C8010E94AB00A0
:10060000F701808361E2C8010E94AB00F70181839A
:10061000DF91CF911F910F91FF90EF90DF90CF90DE
:10062000BF90AF900895CF92DF92EF92FF920F9319
:100630001F93CF93DF9300D000D000D0CDB7DEB7AB
:100640006C0180E58B831C829E012B5F3F4F42E053
:1006500050E0BE016D5F7F4FC6010E94C702CE0110
:1006600001967C018E010D5F1F4F24E030E0A80150
:100670006CE0C6010E943E01182F48E068E0C60108
:100680000E94F200812F26960FB6F894DEBF0FBEAF
:10069000CDBFDF91CF911F910F91FF90EF90DF9031
:1006A000CF9008950F931F93CF93DF93CDB7DEB70D
:1006B00027970FB6F894DEBF0FBECDBF8C01AE01F9
:1006C0004F5F5F4F66E20E942E02811161C0BE0142
:1006D0006D5F7F4FC8010E946C0281115BC020E0FA
:1006E00030E04EC0E3E0F0E0EC0FFD1FE80FF91F33
:1006F0005081F901EE0FFF1FEE0FFF1FEE57FF4F66
:10070000E80FF91F408154130AC0019602C080E02F
:1007100090E08430910534F381E090E002C080E005
:1007200090E0892B59F1C8010E94130300E010E00A
:100730001EC0E3E0F0E0EC0FFD1FE00FF11F208191
:10074000C801880F991F1F922F932DE730E03F9328
:100750002F938B509E4F9F938F930E94100C0F5F8F
:100760001F4F0F900F900F900F900F900F9004302D
:100770001105FCF21092FD0181E00DC02F5F3F4F8B
:100780002330310524F2C8010E94130380E003C026
:100790008FEF01C08FEF27960FB6F894DEBF0FBE24
:1007A000CDBFDF91CF911F910F91089587B38062E4
:1007B00087BB87B3806887BB87B3806187BB80E5D1
:1007C0008DB908958BB182608BB910BC83E389B970
:1007D00088E98AB986E880BD08951F920F920FB606
:1007E0000F9211248F939F93EF93FF939CB180916D
:1007F000F00181111FC09C3261F4E091F101F0E041
:10080000E250FE4F108281E08093F0011092F101DE
:1008100011C08091F1018F3158F4E091F10181E034
:100820008E0F8093F101F0E0E250FE4F908302C002
:100830001092F101FF91EF919F918F910F900FBE58
:100840000F901F9018955D9BFECF8CB90895CF93A4
:10085000DF93EC0103C021960E942304888181115B
:10086000FACFDF91CF91089511B88DEF80B984E070
:1008700086BF089584EA86BF06B607FEFDCF0895B9
:1008800084E986BF089583B984E886BF06B607FE6B
:10089000FDCF0895CF93DF93C091F201D82FD07F81
:1008A000DC2B20E1829FC0011124C82B0E943A0456
:1008B0008EE40E9443048D2F84600E9443048D2F98
:1008C0000E9443040E9440040E943A048EE40E9465
:1008D00043048C2F84600E9443048C2F0E944304A5
:1008E0000E944004DF91CF9108950F931F93CF93FF
:1008F000DF93C091F201D82FD07FDC2B0D2F016048
:1009000020E1829FC0011124C82B1C2F11600E947E
:100910003A048EE40E9443048D2F85600E944304B4
:10092000802F0E9443040E9440040E943A048EE4F7
:100930000E9443048C2F85600E944304812F0E94F3
:1009400043040E944004DF91CF911F910F910895BD
:10095000CF93DF93EC0103C021960E947504888138
:100960008111FACFDF91CF91089581E00E944A046E
:1009700083EF91E00197F1F700C000000895811125
:1009800006C0611104C088E00E944A0408958823CB
:1009900031F0611104C08CE00E944A040895811175
:1009A0000EC0662361F0411104C08AE00E944A042F
:1009B0000895442399F08BE00E944A040895882307
:1009C00069F0662359F0411104C08EE00E944A0488
:1009D0000895442319F08FE00E944A040895882363
:1009E00021F088E08093F20104C0811102C01092CE
:1009F000F2010E943A048EE40E9443048091F201C5
:100A00000E9443040E9440040895611102C080586E
:100A100001C080540E944A04089587E893E1019739
:100A2000F1F700C0000082E00E944A0488E20E94C0
:100A30004A0486E00E944A0481E00E94EF0440E0FC
:100A400060E081E00E94BF040E94B50460E080E0A5
:100A50000E94050508958FB582688FBD8EB58961A6
:100A60008EBD8FE19EE497BD86BD81B3806281BB60
:100A700008951F920F920FB60F9211248F9381E069
:100A80008093F4018091F301882319F01092F3010F
:100A900003C081E08093F3018F910F900FBE0F9000
:100AA0001F9018950E94F80B21E0892B09F020E097
:100AB000822F0895CF93DF93CAB3E0E7F0E081E09F
:100AC00090E09C01008002C0220F331F0A94E2F7DD
:100AD000DC01018002C0AA0FBB1F0A94E2F7BC012F
:100AE000028002C0660F771F0A94E2F7AC01038010
:100AF00002C0440F551F0A94E2F72A2B262B242B01
:100B000020952C232ABB2BB3EC01008002C0CC0F14
:100B1000DD1F0A94E2F7AC2B6A2B462B42234BBB1A
:100B2000CAB3E4E7F0E09C01008002C0220F331F4B
:100B30000A94E2F7DC01018002C0AA0FBB1F0A94ED
:100B4000E2F7BC01028002C0660F771F0A94E2F749
:100B5000AC01038002C0440F551F0A94E2F72A2B10
:100B6000262B242B2C2B2ABB2BB3008002C0880FF2
:100B7000991F0A94E2F78A2B682B462B4095422353
:100B80004BBBDF91CF91089585B7826085BF85B754
:100B90008E7F85BF8BB780648BBF8AB780648ABF26
:100BA00081B38B7F81BB82B3846082BB089580E078
:100BB00090E00E94D30E8A3A69F044E050E061E090
:100BC00070E088E790E00E94FC0E6AEA80E090E026
:100BD0000E94060F0895A0E0B0E05FC02BB381E053
:100BE00090E0FD01EC58FF4F008002C0880F991F74
:100BF0000A94E2F7822B8BBB89EF90E00197F1F723
:100C000000C0000040E050E035C069B381E090E0F2
:100C1000FA01E059FF4F9C01008002C0220F331FF0
:100C20000A94E2F7862F90E0822393231816190680
:100C3000FCF4FA01EE0FFF1FEE0FFF1FE05AFF4F0B
:100C4000EA0FFB1F8081E3E2F4EF3197F1F700C078
:100C500000009BB3AC58BF4F21E030E00C9002C0C5
:100C6000220F331F0A94E2F7209529232BBB089506
:100C70004F5F5F4F4430510544F22BB3FD01EC58F8
:100C8000FF4F81E090E0008002C0880F991F0A9416
:100C9000E2F7809582238BBB1196A430B1050CF44A
:100CA0009DCF84E60895EF92FF920F931F93CF9309
:100CB000DF93CDB7DEB72A970FB6F894DEBF0FBE2D
:100CC000CDBF7C0182B3806482BB83E294EF019745
:100CD000F1F700C0000082B38F7B82BBE1E1FAE74D
:100CE0003197F1F700C0000080E013C092B3906428
:100CF00092BBE1E1FAE73197F1F700C0000092B34F
:100D00009F7B92BBE1E1FAE73197F1F700C0000069
:100D10008F5F823058F30E94B5048EE890E00E9405
:100D2000A80461E080E00E9405058EE990E00E9441
:100D3000A80400E010E074C00E94EB059091F4015B
:100D40009111A5C19091F0019111A3C1843609F4CC
:100D500067C092B3906492BBE1E1FAE73197F1F793
:100D600000C0000092B39F7B92BB8A30B1F4101692
:100D700011060CF055C001501109E1E0F0E0EC0F54
:100D8000FD1FE00FF11F108261E0802F0E9405051A
:100D900082EA90E00E94A80443C08D3019F5043027
:100DA000110509F441C00E94B50484EA90E00E9454
:100DB000A80461E080E00E94050584EB90E00E94B9
:100DC000A80482B3806482BBFFED23E984E0F15084
:100DD00020408040E1F700C0000082B38F7B82BBDF
:100DE00080E05CC18A30E0F404301105CCF4E1E02D
:100DF000F0E0EC0FFD1FE00FF11F805D808361E0EC
:100E0000802F0E94050586EC90E00E94A8040F5FE9
:100E10001F4FE1E0F0E0EC0FFD1FE00FF11F10822B
:100E2000043011050CF488CFB701CE0101960E9461
:100E30005205811128C00E94B50488EC90E00E9400
:100E4000A80461E080E00E9405058AED90E00E9420
:100E5000A80482B3806482BB9FE3EDE0F3E091508D
:100E6000E040F040E1F700C0000082B38F7B82BB1E
:100E70002FE986E891E0215080409040E1F700C0E2
:100E8000000080E00BC182B3806482BBE3E2F4EF38
:100E90003197F1F700C0000082B38F7B82BB81E104
:100EA0009AE70197F1F700C0000080E013C092B309
:100EB000906492BBE1E1FAE73197F1F700C00000DE
:100EC00092B39F7B92BBE1E1FAE73197F1F700C063
:100ED00000008F5F823058F30E94B50484EE90E0EA
:100EE0000E94A80461E080E00E9405058EE990E080
:100EF0000E94A80400E010E00E94EB059091F4012C
:100F00009111C9C09091F0019111C7C08436A1F32D
:100F100092B3906492BBE1E1FAE73197F1F700C038
:100F2000000092B39F7B92BB8A30A9F41016110681
:100F30001CF701501109E6E0F0E0EC0FFD1FE00F97
:100F4000F11F108261E0802F0E94050582EA90E087
:100F50000E94A804D1CF8D3009F055C0043011058E
:100F600051F582B3806482BB83E294EF0197F1F77D
:100F700000C0000082B38F7B82BBE1E1FAE73197CA
:100F8000F1F700C0000080E013C092B3906492BB00
:100F9000E1E1FAE73197F1F700C0000092B39F7BDF
:100FA00092BBE1E1FAE73197F1F700C000008F5FF3
:100FB000823058F342C00E94B50484EF90E00E9452
:100FC000A80461E080E00E9405058CEB90E00E949F
:100FD000A80482B3806482BBFFE32DE083E0F1507C
:100FE00020408040E1F700C0000082B38F7B82BBCD
:100FF0009FE9E6E8F1E09150E040F040E1F700C001
:10100000000080E04BC08A3008F076CF0430110534
:101010000CF072CFE6E0F0E0EC0FFD1FE00FF11FE7
:10102000805D808361E0802F0E94050586EC90E062
:101030000E94A8040F5F1F4F5FCF44E050E0BE0145
:101040006A5F7F4FC7010E94010CF701148244E0E0
:1010500050E061E070E0C7010E94DB0E0E94B50421
:1010600085E091E00E94A80461E080E00E9405050F
:1010700082E191E00E94A804FFED23E984E0F150B1
:1010800020408040E1F700C0000081E007C082E01E
:1010900005C083E003C082E001C083E02A960FB65A
:1010A000F894DEBF0FBECDBFDF91CF911F910F919E
:1010B000FF90EF900895DF92EF92FF920F931F93AE
:1010C000CF93DF9300D000D01F92CDB7DEB78C0155
:1010D000FE01319685E0DF011D928A95E9F70E94B5
:1010E000B50480E291E00E94A804E12CF12CD12CFF
:1010F0000E94EB059091F4019111F6C09091F001DE
:101100009111F4C08436A1F392B3906492BBE1E1F3
:10111000FAE73197F1F700C0000092B39F7B92BBD2
:101120008A3099F4DD2021F3DA94E1E0F0E0EC0F6D
:10113000FD1FED0DF11D108261E08D2D0E94050552
:1011400082EA90E00E94A804D3CF8D3009F09DC0C0
:10115000F4E0DF124FC0B801CE0101960E945205A3
:101160008823F9F00E94B50480E391E00E94A8046E
:1011700080E013C092B3906492BBA1E1BAE71197EB
:10118000F1F700C0000092B39F7B92BBE1E1FAE768
:101190003197F1F700C000008F5F853058F381E090
:1011A000A8C00E94B50480E491E00E94A80482B324
:1011B000806482BBFFE32DE083E0F150204080405B
:1011C000E1F700C0000082B38F7B82BB9FE9A6E8F5
:1011D000B1E09150A040B040E1F700C00000EFEF57
:1011E000EE1AFE0AFE01319685E0DF011D928A9516
:1011F000E9F721C00E94B5048CE491E00E94A804A4
:1012000082B3806482BBBFE3EDE0F3E0B150E04025
:10121000F040E1F700C0000082B38F7B82BB2FE972
:1012200086E891E0215080409040E1F700C0000046
:10123000AFEFEA1AFA0AB5E0EB16F104B9F40E942E
:10124000B5048DE591E00E94A80482B3806482BB5E
:10125000EFE5FEEA2AE0E150F0402040E1F700C06F
:10126000000082B38F7B82BB80E043C0FE013196D9
:1012700085E0DF011D928A95E9F70E94B50480E2BE
:1012800091E00E94A804D12C33CF8E30A1F4C80184
:101290000E945306FE01319695E0DF011D929A955A
:1012A000E9F7823029F10E94B50480E291E00E94C2
:1012B000A804D12C1DCF8A3008F01ACFB3E0BD1599
:1012C00008F416CFE1E0F0E0EC0FFD1FED0DF11D8D
:1012D000805D808361E08D2D0E94050586EC90E0A5
:1012E0000E94A804D39404CF82E003C083E001C02D
:1012F00082E00F900F900F900F900F90DF91CF91A1
:101300001F910F91FF90EF90DF900895CF930E946F
:10131000B5048CE691E00E94A804C0E083E292E06C
:101320000E9452039091F40191115DC09091F001DF
:1013300091115BC08130F9F40E94B50487E791E018
:101340000E94A80490E013C082B3806482BBE1E1F4
:10135000FAE73197F1F700C0000082B38F7B82BBC0
:10136000E1E1FAE73197F1F700C000009F5F9230AA
:1013700058F381E03BC081111CC00E94B50483E892
:1013800091E00E94A80482B3806482BBFFE32DE059
:1013900083E0F15020408040E1F700C0000082B3BC
:1013A0008F7B82BBCF5F0E94B5048CE691E00E94E8
:1013B000A804C53009F0B2CF0E94B5048DE591E0D4
:1013C0000E94A80482B3806482BB9FE5EEEAFAE043
:1013D0009150E040F040E1F700C0000082B38F7B05
:1013E00082BB80E003C082E001C083E0CF9108951A
:1013F00081E08093F3010E94B5048FE891E00E94A0
:10140000A8048CE697E09BBD8ABD80E013C092B330
:10141000906492BBA1E1BAE71197F1F700C0000018
:1014200092B39F7B92BBE1E1FAE73197F1F700C0FD
:1014300000008F5F823058F38FE40E94230485EF11
:1014400091E00E9427041092F0010E94EB05803188
:1014500000F18091F3018823E1F08091F00188236D
:10146000A1F381E19AE70197F1F700C000006DE96F
:1014700071E08EEF91E00E94F80B892B51F01092F1
:10148000F00180E2EEEFF1E0DF011D928A95E9F7CD
:10149000DCCF1092F00180E2EEEFF1E0DF011D926F
:1014A0008A95E9F789E0E5EFF1E0DF011D928A9581
:1014B000E9F708951092F3011092F4010E94B50427
:1014C00083EA91E00E94A80484E893E09BBD8ABD72
:1014D00080E013C092B3906492BBA1E1BAE7119788
:1014E000F1F700C0000092B39F7B92BBE1E1FAE705
:1014F0003197F1F700C000008F5F823058F383E42A
:101500000E9423041092F00180E2EEEFF1E0DF018F
:101510001D928A95E9F708951092F3011092F40153
:101520000E94B5048AEA91E00E94A80487E50E941F
:1015300023048091F30181111CC08091F001882364
:10154000C1F381E19AE70197F1F700C0000069EB70
:1015500071E08EEF91E00E94F80B892B51F0109210
:10156000F00180E2EEEFF1E0DF011D928A95E9F7EC
:10157000E0CF80E2EEEFF1E0DF011D928A95E9F71E
:1015800049E050E060E370E085EF91E00E94F10BEC
:101590001092F00108951092F3011092F4010E944C
:1015A000B50480EC91E00E94A80480E50E94230429
:1015B0008EE192E00E9427042FE78AE196E0215015
:1015C00080409040E1F700C0000080E2EEEFF1E0E3
:1015D000DF011D928A95E9F789E0E5EFF1E0DF018F
:1015E0001D928A95E9F71092F00108951092F30187
:1015F0001092F4010E94B5048FEC91E00E94A804BF
:1016000044E050E060E072E08EE192E00E94010C64
:10161000109223022FE78AE196E02150804090400B
:10162000E1F700C0000044E050E061E070E08EE1CE
:1016300092E00E94DB0E80E2EEEFF1E0DF011D920E
:101640008A95E9F789E0E5EFF1E0DF011D928A95DF
:10165000E9F71092F00108950E9434040E940D05EC
:101660000E945A050E942B050E94C4050E94E203B5
:1016700078940E94D60343E050E064E070E083E297
:1016800092E00E944E0083E292E00E9407010E94D5
:10169000D70581B3806481BB82B38F7B82BB0E94FC
:1016A0005A0A44E050E061E070E08EE192E00E946E
:1016B000C30E0E948609813009F447C0811105C01C
:1016C0000E948C0A0E945A0AECCF823061F489E0B1
:1016D000E5EFF1E0DF011D928A95E9F70E94F80934
:1016E0000E945A0ADECF833081F581E19AE70197A3
:1016F000F1F700C0000060EE71E08EEF91E00E9413
:10170000F80B892B61F489E0E5EFF1E0DF011D9230
:101710008A95E9F70E94F8090E945A0AC2CF65EE3D
:1017200071E08EEF91E00E94F80B892B19F40E9472
:10173000CB0AB7CF8091FE01803539F48091FF014B
:10174000833419F40E94F60AACCF8EE192E00E9435
:101750005B08813019F40E94F80940C0823051F4CE
:1017600089E0E5EFF1E0DF011D928A95E9F70E943B
:10177000F80934C0811103C00E948C0A2FC0833045
:1017800069F581E19AE70197F1F700C0000060EE8A
:1017900071E08EEF91E00E94F80B892B51F489E003
:1017A000E5EFF1E0DF011D928A95E9F70E94F80963
:1017B00015C065EE71E08EEF91E00E94F80B892B69
:1017C00019F40E94CB0A0AC08091FE01803531F4E1
:1017D0008091FF01833411F40E94F60A0E945A0A94
:1017E00060CFDC0101C06D9341505040E0F7089597
:1017F000FB01DC018D91019080190110D9F3990B47
:101800000895FB01DC014150504048F001900D92D9
:101810000020C9F701C01D9241505040E0F70895E3
:10182000AEE0B0E0E6E1FCE00C94210F0D891E89EA
:1018300086E08C831A8309838FEF9FE79E838D83D5
:10184000AE01475E5F4F6F89788DCE0101960E9491
:10185000320CEF81F885E00FF11F10822E96E4E044
:101860000C943D0FABE0B0E0E8E3FCE00C94130F08
:101870006C017B018A01FC0117821682838181FF42
:10188000CCC1CE0101963C01F6019381F70193FD95
:10189000859193FF81917F01882309F4BAC1853234
:1018A00039F493FD859193FF81917F01853229F46D
:1018B000B60190E00E94290EE7CF912C212C312C0B
:1018C000FFE1F315D8F08B3279F038F4803279F0FB
:1018D0008332A1F4232D20611DC08D3261F080334D
:1018E00069F4232D216016C0832D8260382EE32DEC
:1018F000E4603E2E2AC0F32DF8601DC037FC2DC0D9
:1019000020ED280F2A3040F08E32B9F436FC81C128
:10191000232D2064322E19C036FE06C08AE0989E20
:10192000200D1124922E11C0EAE02E9E200D1124CC
:10193000222EF32DF0623F2E08C08C3621F4832D29
:101940008068382E02C0883641F4F70193FD8591F6
:1019500093FF81917F018111B3CF982F9F7D955483
:10196000933028F40C5F1F4F9FE399830DC083369B
:1019700031F0833771F0833509F059C021C0F80187
:10198000808189830E5F1F4F88248394912C53019B
:1019900013C02801F2E04F0E511CF801A080B18065
:1019A00036FE03C0692D70E002C06FEF7FEFC50106
:1019B0000E941E0E4C018201F32DFF773F2E16C0B0
:1019C000280122E0420E511CF801A080B18036FEB1
:1019D00003C0692D70E002C06FEF7FEFC5010E9468
:1019E000130E4C01F32DF0683F2E820133FC1BC017
:1019F000822D90E088169906B0F4B60180E290E05E
:101A00000E94290E2A94F4CFF50137FC859137FE08
:101A100081915F01B60190E00E94290E21102A9465
:101A200021E0821A91088114910471F7E8C084368C
:101A300011F0893641F5F80137FE07C060817181E8
:101A4000828193810C5F1F4F08C060817181072ED6
:101A5000000C880B990B0E5F1F4FF32DFF763F2E66
:101A600097FF09C090958095709561957F4F8F4F36
:101A70009F4FF0683F2E2AE030E0A3010E94650EE0
:101A8000882E861845C0853731F4232D2F7EB22E3F
:101A90002AE030E025C0932D997FB92E8F36C1F012
:101AA00018F4883579F0B5C0803719F0883721F0FF
:101AB000B0C0E92FE061BE2EB4FE0DC0FB2DF46076
:101AC000BF2E09C034FE0AC0292F2660B22E06C0E0
:101AD00028E030E005C020E130E002C020E132E043
:101AE000F801B7FE07C060817181828193810C5F2C
:101AF0001F4F06C06081718180E090E00E5F1F4F34
:101B0000A3010E94650E882E8618FB2DFF773F2EBD
:101B100036FE0DC0232D2E7FA22E891458F434FEDC
:101B20000BC032FC09C0832D8E7EA82E05C0B82CB8
:101B3000A32C03C0B82C01C0B92CA4FE0FC0FE0119
:101B4000E80DF11D8081803321F49A2D997EA92E14
:101B500009C0A2FE06C0B394B39404C08A2D86784F
:101B600009F0B394A3FC11C0A0FE06C0B21488F41F
:101B7000280C922C9B180EC0B21460F4B60180E2BF
:101B800090E00E94290EB394F7CFB21418F42B18EA
:101B900002C0982C212CA4FE10C0B60180E390E076
:101BA0000E94290EA2FE17C0A1FC03C088E790E0A6
:101BB00002C088E590E0B6010CC08A2D867859F005
:101BC000A1FE02C08BE201C080E2A7FC8DE2B6015B
:101BD00090E00E94290E891438F4B60180E390E069
:101BE0000E94290E9A94F7CF8A94F301E80DF11D13
:101BF0008081B60190E00E94290E8110F5CF22204D
:101C000009F442CEB60180E290E00E94290E2A94A7
:101C1000F6CFF6018681978102C08FEF9FEF2B965A
:101C2000E2E10C942F0FFC0105906150704001100F
:101C3000D8F7809590958E0F9F1F0895FC016150F5
:101C4000704001900110D8F7809590958E0F9F1FDE
:101C500008950F931F93CF93DF93FB01238121FD01
:101C600003C08FEF9FEF2CC022FF16C04681578123
:101C7000248135814217530744F4A081B1819D012D
:101C80002F5F3F4F318320838C93268137812F5FD5
:101C90003F4F3783268314C08B01EC01FB01008486
:101CA000F185E02D0995892BE1F6D80116968D91E5
:101CB0009C911797019617969C938E931697CE0139
:101CC000DF91CF911F910F910895FA01AA27283033
:101CD00051F1203181F1E8946F936E7F6E5F7F4FF9
:101CE0008F4F9F4FAF4FB1E03ED0B4E03CD0670F75
:101CF000781F891F9A1FA11D680F791F8A1F911DC8
:101D0000A11D6A0F711D811D911DA11D20D009F417
:101D100068943F912AE0269F11243019305D319359
:101D2000DEF6CF010895462F4770405D4193B3E042
:101D30000FD0C9F7F6CF462F4F70405D4A3318F0E9
:101D4000495D31FD4052419302D0A9F7EACFB4E09A
:101D5000A6959795879577956795BA95C9F7009752
:101D60006105710508959B01AC010A2E06945795F3
:101D7000479537952795BA95C9F7620F731F841F4A
:101D8000951FA01D0895DC01CB01FC01E199FECF58
:101D900006C0FFBBEEBBE09A31960DB20D924150EA
:101DA0005040B8F70895E199FECF9FBB8EBBE09AF3
:101DB00099278DB30895DC01A40FB51F4150504001
:101DC00048F0CB01840F951F2E910E94EC0E4150DC
:101DD0005040D0F70895262FE199FECF9FBB8EBBD0
:101DE000E09A01970DB2021631F02DBB0FB6F894B0
:101DF000E29AE19A0FBE0895DC01CB0103C02D9158
:101E00000E94070F41505040D0F70895262FE199C6
:101E1000FECF9FBB8EBB2DBB0FB6F894E29AE19A22
:101E20000FBE019608952F923F924F925F926F924C
:101E30007F928F929F92AF92BF92CF92DF92EF925A
:101E4000FF920F931F93CF93DF93CDB7DEB7CA1BDB
:101E5000DB0B0FB6F894DEBF0FBECDBF09942A8806
:101E6000398848885F846E847D848C849B84AA84AE
:101E7000B984C884DF80EE80FD800C811B81AA813B
:101E8000B981CE0FD11D0FB6F894DEBF0FBECDBF06
:081E9000ED010895F894FFCF65
:101E98000102030A0405060B0708090C0E000F0DC2
:101EA80004050607030201003132333400253032BD
:101EB800580094E7340233038913C557A5AC456E1F
:101EC800746572206F6C6420706173733A0020200F
:101ED8002020200050617373776F7264206C656EE8
:101EE800677468006D7573742062652034206469B6
:101EF8006769747321002A00496E636F72726563A3
:101F0800742063757272656E740070617373776F95
:101F180072642100456E746572206E657720706169
:101F280073733A0050617373776F7264206D7573C1
:101F3800742062650050617373776F7264207365F3
:101F480074007375636365737366756C6C792100CF
:101F5800456E7465722070617373776F72643A00AE
:101F680050617373776F72642052696768742100D7
:101F780057726F6E67207061737321004D757374AB
:101F88002062652034206469676974730057726F32
:101F98006E6720352074696D657321005363616E27
:101FA80020636172643A0052696768742043617201
:101FB80064210057726F6E67204361726421004F7D
:101FC80070656E2120436F6D6520496E00436C6F0C
:101FD800736500436C6F73652100416363657373B8
:101FE8002044656E6965642100416363657373000D
:101FF80053656E642050617373776F72642100506B
:10200800617373776F7264204368616E67656400FB
:102018004F70656E0050617373636865636B000091
:00000001FF
